:2000000002002F02000632FFFFFFFF02000E32FFFFFFFF02001632FFFFFFFF02001E32FFA4
:20002000FFFFFF02002632FFFFFFFF02002E3275A800758700758920758DFDD28E75985216
:20004000D29978FF7581B20217FC0000FF04454D49543099FDC299858299217A4D00FF0324
:200060004B45593098FDC29818A68318A682859982758300225F00FF044B45593F18A68372
:2000800018A682E5981381397800FF044558495415811581228B00FF034C495418A6831804
:2000A000A682D083D082E493A3FAE493A3C082C083F5838A82229800FF07455845435554AE
:2000C00045C082C083217AB900FF085641524941424C45121412120770020F64CA00FF09AD
:2000E000435641524941424C45121412119C0100020F64DF00FF08434F4E5354414E5412BA
:200100001454120FB312148B18A68318A682D083D08241BEF600FF04555345521214541209
:200120000FB312148B315CD083D08251BEE5822408F582E5833400F58322315CD083D08299
:200140002218A68318A682D005D004D083D082C004C00541BE1701FF0344555018A68318CA
:20016000A682225801FF043F445550E583458270EB226601FF0444524F5086820886830845
:20018000227501FF04535741508602088603A68318A6828B838A82228401FF044F56455207
:2001A0008602088603181880E59B01FF03524F548604088605088602088603A60518A60453
:2001C0001880CBAC01FF023E52D003D002C082C083C002C00380A3C601FF02523E18A68313
:2001E00018A682D003D002D083D082C002C00322DA01FF02524018A68318A682A981191983
:20020000878319878222F301FF0353504018A68318A6827583008882220902FF0353502141
:20022000A882217A1C02FF0352504018A68318A682758300858182222702FF03525021D016
:2002400003D002858281C002C003217A3B02FF034E49503189217A4F02FF045455434B31EA
:200260008921A05A02FF0121A982E608F709E608F7217A6602FF024321A982E608F7082118
:200280007A7602FF0140A9828782098783228402FF024340A9828782758300229102FF02D7
:2002A0004921E608F0A3E608F0217A9F02FF03494321E608F008217AAE02FF024940E49358
:2002C000FA7401938A82F58322BB02FF03494340E493F58275830022CC02FF012BE60825D7
:2002E00082F582E6083583F58322DB02FF024D2B860208860308E62582F608E63583F61817
:20030000E43AF582E43BF58322ED02FF012DE608C39582F582E6089583F583220C03FF0383
:20032000414E44E6085282E6085283221F03FF024F52E6084282E6084283222F03FF03586C
:200340004F52E6086282E6086283223E03FF06494E564552546382FF6383FF224E03FF06D6
:200360004E45474154456382FF6383FFA3225F03FF02312BA3227103FF02312DE58270020B
:2003800015831582227903FF023E3CE582858382F583228803FF02322AE5822582F582E538
:2003A0008333F583229603FF02322FE58333E58313F583E58213F58222A803FF064C5348BA
:2003C000494654AC828682088683080C800BE5822582F582E58333F583DCF322BC03FF0607
:2003E000525348494654AC828682088683080C800BC3E58313F583E58213F582DCF322DFD0
:2004000003FF022B21A982E60827F709E60837F7217A0204FF03432B21A982E60827F708BF
:20042000217A1504FF023C3E915080062504FF02303DE5834582C3940195E0F583F5822282
:200440002F04FF02303CE5833380EE4304FF013D710E80E04E04FF013C710E30D201F43359
:2004600080D75704FF013E318980EE6504FF02553C710E80C46E04FF02553E318980F278FC
:2004800004FF073F4252414E4348860208E608C58345828A82228204FF06284C4F4F502994
:2004A000EE2401FEEF3400FF20D21EE4229904FF07282B4C4F4F5029EE2582FEEF3583FF61
:2004C00086820886830830D2E2E4F422B004FF0428444F29D003D002C006C007E608F4244A
:2004E00001FCE608F43480FDC004C005EC2582FEED3583FFC002C003217ACF04FF0149185A
:20050000A68318A682A981191919C3EE97F58209EF97F58322FD04FF014A18A68318A68249
:20052000A9811919191987031987021987F019C3EA97F582EB95F0F583221805FF06554ECE
:200540004C4F4F50D003D00215811581D007D006C002C003223D05FF03554D2A860108E9B4
:200560008582F0A4FAABF0E98583F0A42BFBE435F0FCE68582F0A42BFBEC35F0FCE43400CF
:20058000FDE68583F0A42CFCED35F0F5838C82A60318A602225805FF06554D2F4D4F4486F8
:2005A000030886020886050886047911C38029EB33FBEA33FA500CC3EB9582FBEA9583FA45
:2005C000C38014C3EB9582FBEA9583FA5009EB2582FBEA3583FAD3B3ED33FDEC33FCD9CF20
:2005E0008D828C83A60218A603229805FF0446494C4CAC8286020886030886010808EC0BAE
:200600000A8002F709DAFCDBFA217AED05FF04492D3E44316B918A601A31A051DD318991A0
:20062000D4315C51D091FF5179717491A060F2B144315C317A217A0E06FF04442D3E49316E
:200640006B918A601A31A051DD318991D4315C519491FF51B2717491A060F2B144315C315C
:200660007A217A3A06FF05434D4F5645316B918A601A31A051DD318991D4315C519491FF56
:200680005179717491A060F2B144315C317A217A6606FF06434D4F56453E316B918A6028F8
:2006A000717C31B031A051DD31B031B031A051DD91D4315C519491FF5179717C119CFFFFE3
:2006C00091B860EEB144315C317A217A9306FF04534B4950AC8286020886030886010B0AFD
:2006E0008005E76C700509DAF9DBF7A6011A1B8B838A82A322CF06FF045343414EAC828693
:20070000020886030886010B0A8005E76C600509DAF9DBF7A6011A1B8B838A82A322F806FE
:20072000FF024E3DAA82AB83868208868308860108080B0A8008E493A3C39709700ADAF6B7
:20074000DBF48B838B828009B395E0F5834401F582222107FF05414C49474E225507FF078D
:20076000414C49474E4544225F07FF0443454C4C12010802006B07FF0543454C4C2BA3A3B6
:20078000227807FF0543454C4C530203998407FF05434841522BA3229007FF05434841524D
:2007A00053229B07FF053E424F4459A3A3A30202BEA507FF08434F4D50494C452C12009C71
:2007C0001200120FC712038B020FB3B407FF0321434612009C12001201A01202B212037492
:2007E00012018912038B1201890202A2CE07FF032C434680C8EF07FF052C4E4F4346120049
:200800009C0300020FA7F807FF0621434F4C4F4E12009CFDFF020FA70908FF052C45584958
:200820005412009C2200020FC71B08FF072C4252414E434812016B12048A600B1207BD1248
:20084000009C6000020FC712009C8000020FC72C08FF052C44455354120F971203741203D4
:200860000E020FC75208FF072C4E4F4445535412009C0100020FA76708FF0521444553540E
:2008800012025F12037412030E1201890202B27A08FF072C554E4C4F4F5012009C4405025D
:2008A00007BD9208FF02424C1201082000A508FF0754494253495A451201082700B008FF4A
:2008C000035449421201088A00C008FF0255301201250000CC08FF033E494E120125000028
:2008E000D708FF04424153451201250100E308FF0553544154451201250200F008FF0244DB
:20090000501201250300FE08FF0727534F5552434512012504000909FF064C415445535428
:2009200012012506001909FF02485012012508002809FF024C5012012509003309FF0349E8
:2009400044501201250A003E09FF025330120108FF004A09FF035041441201088A005509AF
:20096000FF024C3012010880006109FF025230120108B2006C09FF0555494E495412010888
:20098000DC1B7709FF0523494E49541201080C008509FF03533E4412015C0204469309FFA3
:2009A000073F4E454741544512044612048A600312036622A009FF0341425312015C80E8E9
:2009C000B709FF07444E454741544512018912035512018912035512009C01000202F0C3E7
:2009E00009FF083F444E454741544512044612048A600231CB22E209FF0444414253120119
:200A00005C80E8F909FF024D2A719F1203421201C912018931BB12018931BB12055C1201BF
:200A2000DD80C8060AFF06534D2F52454D719F1203421201C91201A01201C931BB1201C92F
:200A400031FE1201DD12059F1201891201DD31A81201891201DD21A8260AFF06464D2F4DC3
:200A60004F4412015C1201C9719F1203421201C91201C931FE1201F631BB12059F12018903
:200A80001201DD31A81201891201DD12044612048A601A1203661201A012048A600F12013B
:200AA000F61201B012030E12018912037C1201DD12017A225B0AFF012A510902017AB70A67
:200AC000FF042F4D4F441201C931971201DD4162C10AFF012F51C6020253D30AFF034D4FEA
:200AE0004451C602017ADD0AFF052A2F4D4F441201C951091201DD4162E90AFF022A2F5193
:200B0000EF020253FC0AFF034D4158719F12045912048A600312018902017A070BFF034DA5
:200B2000494E719F12046712048A600312018902017A1E0BFF02324012015C12077E1202BF
:200B400086120189020286350BFF0232211201891201A012026812077E0202684A0BFF0330
:200B600032434012015C1207961202941201890202945F0BFF033243211201891201A01263
:200B80000279120796020279750BFF053244524F5012017A02017A8B0BFF043244555012F3
:200BA00001A00201A09A0BFF0532535741501201B01201C91201B01201DD22A80BFF05327E
:200BC0004F5645521201C91201C9719F1201DD1201DD61AEBE0BFF05434F554E5412015C5D
:200BE000120796120189020294D70BFF02435212009C0D0012005212009C0A00020052EC83
:200C00000BFF0553504143451208A8020052020CFF0653504143455312015C12048A6007FB
:200C2000910812037C80F102017A110CFF04554D494E719F12047B12048A60031201890201
:200C4000017A2D0CFF04554D4158719F12047112048A600312018902017A450CFF06414315
:200C6000434550541201A01202DD12037C1201A012006312015C12009C0D0012042812046D
:200C80008A603912015C12005212015C12009C080012045012048A601312017A12037C1290
:200CA00001C91201A01201DD914A800E1201A01202791203741201A0913280B412017A124C
:200CC000025312018902030E5D0CFF045459504512016B12048A601F1201A01202DD12010E
:200CE000891204D41204FF1202941200521204A060F2120544800312017A22CB0CFF0528C8
:200D0000495322291201DDB1A8719F1202DD1201C922FE0CFF04285322291201F61202BEF6
:200D20001201DD12077E12015C1202D0120796719F1202DD1201C91201C91201A01201DDCE
:200D400012061361DD150DFE0349532212009C040D1207BD12009C2200120DF11202D012DE
:200D60000374020FA7480DFE02532212009C1A0D1207BDF156120FB312009C2200120DF1D4
:200D80001202D012037412015CF164020FA7680DFE022E22B14C12009CBD0D0207BD910DCC
:200DA000FF0649434F554E5412015C1207961201890202D0A10DFF05495459504512016B13
:200DC00012048A601F1201A01202DD1201891204D41204FF1202D01200521204A060F21253
:200DE0000544800312017A22B70DFF0549574F5244121024120F9712025F1201A01202945F
:200E000012079602063FEB0DFF0655442F4D4F441201C912009C00001201F612059F1201DB
:200E2000B01201B01201DD12059F0201B0090EFF0355442A12015C1201C912055C12017ABF
:200E40001201891201DD12055C1201B00202DD300EFF04484F4C4412009CFFFF312B120469
:200E600019312B120294020279520EFF023C233159312B0202796C0EFF063E444947495487
:200E800012015C12009C090012046712009C07001203231202DD12009C30000202DD790E8B
:200EA000FF012311E8120294D1101201B0D18080A6A10EFF022353D1A3719F12033212044C
:200EC0003212048A60F122B40EFF02233E7191312B12029431591201A002030ECA0EFF0478
:200EE0005349474E12044612048A600712009C2D00D15722DF0EFF02552ED16F12009C00DA
:200F000000D1B7D1CD91D08108F70EFF012ED16F12015C1209BB12009C0000D1B71201B010
:200F2000D1E4D1CD91D081080C0FFF07444543494D414C12009C0A0011E80202792B0FFFFD
:200F40000348455812009C100011E8020279400FFF04484552453101020294510FFF054190
:200F60004C4C4F5431010204195E0FFF012C120F5612026812009C020080E96C0FFF024381
:200F80002C120F5612027912009C010080D67E0FFF054948455245120942020286910FFF98
:200FA0000649414C4C4F54120942020405A00FFF02492C120F971202A212009C020080E754
:200FC000B00FFF0349432C120F971202B212009C010080D3C30FFF06534F55524345120955
:200FE00011020B63D70FFF072F535452494E471201B01201A01202DD1201B01201B002038C
:201000000EE70FFF083E434F554E544544120B9F12027912079612018902066C0410FF0456
:20102000574F524412015C120FDE1208DB120294120FEF12015C1201C91201B01206D4124D
:2010400001A01201C91201B01206FD12015C12048A600312037C1201DD1201DD1201B01283
:20106000030E1208DB12041912025F12030E120F5612100D120F561208A81201A0120BDD19
:201080001202DD0202791F10FF074E46413E4C464112009C030002030E8910FF074E46418F
:2010A0003E434641120DA812009C7F001203230202DD9C10FF06494D4D45443F12037C121C
:2010C00002D012009C0100120323020432B510FF0446494E44120920120286120B9F120192
:2010E000A012029412079612072412015C12048A600C12017A1210911202BE12015C1204AA
:201100003212048A60D512015C12048A601912025312015C1210A412018911BC12043212E1
:20112000009C010012033222D010FE074C49544552414C1208F612029412048A600B1200E2
:201140009C9C001207BD120FB3222B11FF0644494749543F12015C12009C390012046712B5
:20116000009C00011203231202DD12015C12009C400112046712009C070112032312030EBD
:2011800012009C300012030E12015C1208E81202940204714D11FF053F5349474E1201A039
:2011A00012029412009C2C0012030E12015C1209BB12009C010012045012032312015C1277
:2011C000048A60111203741201C912009C0100120FEF1201DD229711FF073E4E554D424577
:2011E0005212015C12048A60361201A012029412115412043212048A600302017A1201C982
:20120000120BAE1208E8120294120E341201DD1202F0120BAE12009C0100120FEF80C22223
:20122000D911FF073F4E554D42455212015C12009C000012015C1201B0120BDD12119D129B
:2012400001C91211E112048A60101201DD120B91120B9112009C00008016120B911202530B
:201260001201DD12048A600312036612009CFFFF222312FF09494E5445525052455412091D
:2012800011120B7912009C00001208DB1202791208A812102412015C12029412048A604B0D
:2012A0001210D512016B12048A601E1203741208F612029412043212033212048A600512B4
:2012C00000C180031207BD8020512B12048A60051211338014120BDD120CD012009C3F0014
:2012E000120052120BEF12137E80A402017A7412FF084556414C55415445120911120B63AA
:201300001201C91201C91208DB1202941201C9517E1201DD1208DB1202791201DD1201DD7B
:20132000120911020B79F112FF045155495412096412093612027912096F12023F12009CCA
:2013400000001208F61202791208C412015C1208B8120C64120C08517E1208F61202941290
:20136000043212048A6009120D04026F6B120DBD120BEF80D32913FF0541424F5254120921
:201380004D12022080A87813FF063F41424F52541201B012048A6005120DBD80E1020B91BA
:2013A0008913FE0641424F525422120D4C12009C90130207BDA313FF01271208A81210248C
:2013C0001210D5120432120D04013F80C3B813FF04434841521208A81210241203740202A7
:2013E00094D013FE065B434841525D71D512009C9C001207BD020FB3E413FE012812009CA6
:20140000290012102402017AFB13FF06435245415445120920120286120FB312009CFF00C3
:20142000120FC7120F971209201202681208A8120DF11202D0120374120FA712009C080197
:201440001207F3120F56020FB30B14FF073C4255494C4453120920120286120FB312009CCA
:20146000FF00120FC7120F971209201202681208A8120DF11202D0120374120FA70207FE08
:201480004C14FF0728444F45533E291201DD1209201202861210A40207D28314FE05444F99
:2014A00045533E12009C8B141207BD12009C41010207F39D14FE075245435552534512095D
:2014C000201202861210A40207BDB614FE015B12009C00001208F6020279CD14FF015D1217
:2014E000009CFFFF1208F6020279DD14FF044849444512092012028612015C1210911202AC
:20150000BE120920020268ED14FF0652455645414C12015C1210911202BE120920120286D8
:2015200012045012048A6008120920120268800312017A220A15FF09494D4D4544494154E3
:201540004512009CFE0012092012028612037C0202B23715FF013A915491F291DF02081006
:201560005515FE013BB11112082181CF6315FE035B275D71BA12009C9C001207BD020FB313
:201580006F15FE08504F5354504F4E451208A81210241210D512015C120432120D04013F30
:2015A00012139012044612048A601512009C9C001207BD120FB312009CBD071207BD800346
:2015C0001207BD228315FE02494612009C8A04120834120F9702086FC715FE045448454E24
:2015E000120F97120189020880DB15FE04454C534512009C0000120834120F9712086F12A3
:20160000018980DCEC15FE05424547494E020F970716FE05554E54494C12009C8A041208D1
:20162000340208581316FE05414741494E12009C00001208340208582716FE055748494CB6
:2016400045B1CA0201893B16FE06524550454154D12D808C4916FF023E4C1207701209365A
:201660001204191209361202940202685716FF024C3E1209361202941202861207701203AD
:20168000661209360204196F16FE02444F12009CD4041207BD120F9712009C0000C15A8AF5
:2016A00016FF07454E444C4F4F5012083412085812089AD17212016B12048A6004B1E080B3
:2016C000F222A216FE044C4F4F5012009CA00480D9C516FE052B4C4F4F5012009CB804802A
:2016E000C9D416FE054C4541564512009C44051207BD12009C0000120834120F9712086FBD
:2017000002165AE416FF0657495448494E1201A012030E1201C912030E1201DD0204710643
:2017200017FF044D4F56451201C9120B9F12018912015C1201F61202DD12170D12048A6085
:20174000081201DD12069A80061201DD12066C222217FF05444550544812020D12094D1276
:20176000018912030E0203AB5317FF0C454E5649524F4E4D454E543F120B9112009C0000A7
:20178000226B17FF05574F52445312092012028612015C120DA812009C7F00120323120D83
:2017A000BD120C081210911202BE12015C12043212048A60DB02017A8417FF022E53120281
:2017C0000D12094D12030E12048A602712020D12094D12009C020012030E1204D41204FFEF
:2017E000120286120EFA12009CFEFF1204B860ED12054422BB17FF04434F4C44121A1812A5
:2018000009201202861210A40200C1E583858283F5822253820F758300225382F0E58203C4
:20182000030303F58275830022E582C3940A40022407243AF5821200522212015C12181ACB
:201840001218291218131218292212015C1202D012183A12009C20001200521203742212DD
:20186000015C12180B12183A12183A12009C200012005222F717FF054944554D5012009C7B
:2018800000001204D4120BEF12015C12185F120C0812184A12184A12184A12184A12184AF0
:2018A00012184A12184A12184A12184A12184A12184A12184A12184A12184A12184A121876
:2018C0004A12009C10001204B860BA12054412017A227718FF0321503185829002017AD5F2
:2018E00018FF0340503112015C85908275830022E218FF052154434F4E85828802017AF39B
:2019000018FF054054434F4E12015C858882758300220219FF05283F444F29D003D002C078
:2019200006C007E608F42401FCE608F43480FDC004C005EC2582FEED3583FF64804E7008DC
:2019400015811581D007D006868208868308C002C003221519FE033F444F12009C00001225
:20196000165A12009C1B19120834120F9712086F12165A020F9718A68318A682D005D00432
:20198000D083D082C004C005225619FE0649444F45533E12009C8B141207BD12009C761972
:2019A0000207F38C19FF064D41524B45525105120920120286120F97121454120F56120FCA
:2019C000B3120FB3120FB312148B121976120F9712018912015C1202BE120901120279120A
:2019E000077E12015C1202BE12094212026812077E1202BE120920120268120F97120189D4
:201A0000121A05410622020B91A619FF0B524553544F52452D52414D12009CDC1B12009C41
:201A2000080012009C0C000206130C1AFF02544FD2D5222D1AFF032B544FD2D5D2D122367D
:201A40001AFF03414452D2D122421AFF0556414C5545121454120F56120FB3120770120F82
:201A60006412148B18A68318A682D083D0821202BE10D10610D50702028610D504220202ED
:201A8000680204054C1AFF064356414C5545121454120F56120FB312009C0100120F64129D
:201AA000148B18A68318A682D083D0821202BE10D10610D50702029410D50422020279029A
:201AC0000419871AFF04434F4445120920120286120FB312009CFF00120FC7120F97120919
:201AE000201202681208A8120DF11202D0120374020FA7C51AFF08454E442D434F4445222C
:201B0000F61AFF045346403A51CA12009C5C011207BD12009C7500120FC712009C83001255
:201B20000FC712009C0000120FC712009C8500120FC7120FC712009C8200120FC7020821F3
:201B4000031BFF045346213A51CA12009C8500120FC712009C8200120FC7120FC712009C8C
:201B60007A011207BD020821431BFF075346534554423A1202DD51CA12009CD200120FC710
:201B8000120FC70208216B1BFF075346434C52423A1202DD51CA12009CC200120FC7120F2B
:201BA000C7020821891BFF044D41494E121A05120D0423383035322043616D656C466F72F8
:201BC00074682076312E3420203139204D617220323030310D0A120DBD02137E000A00148F
:081BE0000000A71B000000E05B
:00000001FF
